:020000040800F2
:1000000030040020B50C00080D0D00080D0D00088F
:100010000D0D00080D0D00080D0D0008000000007A
:100020000000000000000000000000000D0D0008AE
:100030000D0D0008000000000D0D00080D0D00085A
:100040000D0D00080D0D00080D0D00080D0D000828
:100050000D0D00080D0D00080D0D00080D0D000818
:100060000D0D00080D0D00080D0D00080D0D000808
:100070000D0D00080D0D00080D0D00080D0D0008F8
:100080000D0D00080D0D00080D0D00080D0D0008E8
:100090000D0D00080D0D00080D0D00080D0D0008D8
:1000A0000D0D00080D0D00080D0D00080D0D0008C8
:1000B0000D0D00080D0D00080D0D00080D0D0008B8
:1000C0000D0D00080D0D00080D0D00080D0D0008A8
:1000D0000D0D00080D0D00080D0D00080D0D000898
:1000E0000D0D00080D0D00080D0D000800000000AA
:1000F0000000000000000000000000000000000000
:1001000000000000000000005FF808F180B500AFBB
:10011000154B1B68144A43F001031360124B5A68D5
:100120001149124B13404B600F4B1B680E4A23F0D2
:10013000847323F4803313600B4B1B680A4A23F447
:1001400080231360084B5B68074A23F4FE03536067
:10015000054B4FF41F029A6000F078F8044B4FF003
:1001600000629A6000BF80BD001002400000FFF8EE
:1001700000ED00E080B485B000AF0023FB600023F9
:10018000BB6000237B602C4B5B6803F00C03FB60BF
:10019000FB68042B07D0082B09D0002B33D1274B49
:1001A000274A1A6033E0254B254A1A602FE0224B7C
:1001B0005B6803F47013BB601F4B5B6803F4803310
:1001C0007B60BB689B0C0233BB607B68002B06D155
:1001D000BB681C4A02FB03F3184A136017E0164B76
:1001E0005B6803F40033002B06D0BB68154A02FBA2
:1001F00003F3124A13600AE0BB68114A02FB03F3DF
:100200000E4A136003E00D4B0D4A1A6000BF0A4B03
:100210005B681B0903F00F030B4AD35CDBB2FB6086
:10022000064B1A68FB6822FA03F3044A136000BF06
:100230001437BD4680BC704700100240000000200B
:1002400000127A0000093D000400002080B500AFD4
:1002500000F002F800BF80BD80B483B000AF00237F
:100260007B6000233B603A4B1B68394A43F4803380
:100270001360374B1B6803F400333B607B6801332A
:100280007B603B68002B03D17B68B3F5A06FF0D196
:100290002F4B1B6803F40033002B02D001233B607B
:1002A00001E000233B603B68012B4BD1294B1B68CD
:1002B000284A43F010031360264B1B68254A23F09D
:1002C00003031360234B1B68224A43F002031360AD
:1002D0001F4B1F4A5B6853601D4B1D4A5B68536090
:1002E0001B4B5B681A4A43F480635360184B5B688E
:1002F000174A23F47C135360154B5B68144A43F48C
:10030000E8135360124B1B68114A43F0807313606B
:1003100000BF0F4B1B6803F00073002BF9D00C4B90
:100320005B680B4A23F003035360094B5B68084A80
:1003300043F00203536000BF054B5B6803F00C03FE
:10034000082BF9D100BF0C37BD4680BC704700BFF9
:10035000001002400020024080B400AF134B1B6825
:10036000124A43F001031360104B5A680F49104BB7
:1003700013404B600D4B1B680C4A23F0847323F42D
:1003800080331360094B1B68084A23F480231360F1
:10039000064B5B68054A23F4FE035360034B4FF49E
:1003A0001F029A6000BFBD4680BC7047001002402B
:1003B0000000FFF880B483B000AF7860134B1B6877
:1003C000124A23F480331360104B1B680F4A23F446
:1003D000802313607B68B3F5803F03D0B3F5802F93
:1003E00007D00DE0094B1B68084A43F480331360C3
:1003F00006E0064B1B68054A43F4A023136000BFC8
:1004000000BF0C37BD4680BC704700BF00100240E3
:1004100080B582B000AF00233B600023FB71002356
:10042000BB71312000F00EFB0346BB713B6801330A
:100430003B603B68B3F5A06F02D0BB79002BF0D0D6
:10044000312000F0FFFA0346002B02D00123FB719C
:1004500001E00023FB71FB7918460837BD4680BDDB
:1004600080B485B000AF0346FB710023FB600A4BEC
:100470001B68FB60FB6823F0F803FB60FB79DB0083
:10048000FA681343FB60044AFB68136000BF14372B
:10049000BD4680BC704700BF0010024080B483B0EE
:1004A00000AF0346FB71044AFB79136000BF0C37B1
:1004B000BD4680BC704700BF0000424280B485B09A
:1004C00000AF786039600023FB600A4B5B68FB601B
:1004D000FB6823F47C13FB607A683B681343FA687B
:1004E0001343FB60034AFB68536000BF1437BD46EB
:1004F00080BC70470010024080B483B000AF034658
:10050000FB71044AFB79136000BF0C37BD4680BC09
:10051000704700BF6000424280B485B000AF786091
:100520000023FB60094B5B68FB60FB6823F003035F
:10053000FB60FA687B681343FB60044AFB68536006
:1005400000BF1437BD4680BC704700BF001002409A
:1005500080B400AF044B5B68DBB203F00C03DBB28A
:100560001846BD4680BC70470010024080B485B07C
:1005700000AF78600023FB60094B5B68FB60FB68A1
:1005800023F0F003FB60FA687B681343FB60044AC6
:10059000FB68536000BF1437BD4680BC704700BF86
:1005A0000010024080B485B000AF78600023FB608B
:1005B000094B5B68FB60FB6823F4E063FB60FA684F
:1005C0007B681343FB60044AFB68536000BF143729
:1005D000BD4680BC704700BF0010024080B485B0AB
:1005E00000AF78600023FB60094B5B68FB60FB6831
:1005F00023F46053FB607B68DB00FA681343FB6005
:10060000034AFB68536000BF1437BD4680BC704787
:100610000010024080B483B000AF03460A46FB716D
:100620001346BB71BB79002B08D00C4B1B78DAB298
:100630000A49FB791343DBB20B7009E0074B1B78C7
:10064000DAB2FB79DB43DBB204491340DBB20B7057
:1006500000BF0C37BD4680BC704700BF0910024088
:1006600080B483B000AF7860034A7B68136000BF3A
:100670000C37BD4680BC7047D800424280B485B07C
:1006800000AF78600023FB60094B5B68FB60FB6890
:1006900023F44043FB60FA687B681343FB60044A21
:1006A000FB68536000BF1437BD4680BC704700BF75
:1006B0000010024080B483B000AF0346FB710C4BC6
:1006C00000221A700A4B00221A70FB79012B02D00B
:1006D000042B04D007E0064B01221A7003E0044B00
:1006E00005221A7000BF00BF0C37BD4680BC7047A2
:1006F0002010024080B483B000AF0346FB71044A6F
:10070000FB79136000BF0C37BD4680BC704700BF4B
:100710008004424280B483B000AF7860054B1A6A0F
:1007200004497B6813430B6200BF0C37BD4680BC95
:10073000704700BF0010024080B483B000AF034692
:10074000FB71044AFB79136000BF0C37BD4680BCC7
:10075000704700BF3C04424280B487B000AF78606D
:1007600000237B6100233B610023FB600023BB600F
:100770004C4B5B6803F00C037B617B69042B07D057
:10078000082B09D0002B33D17B68474A1A6033E02D
:100790007B68454A1A602FE0424B5B6803F4701394
:1007A0003B61404B5B6803F48033FB603B699B0C0F
:1007B00002333B61FB68002B06D13B693B4A02FBDD
:1007C00003F27B681A6017E0364B5B6803F4003372
:1007D000002B06D03B69354A02FB03F27B681A60A6
:1007E0000AE03B69304A02FB03F27B681A6003E0CF
:1007F0007B682D4A1A6000BF2A4B5B6803F0F00348
:100800007B617B691B097B61294A7B6913441B78E7
:10081000DBB2BB607B681A68BB68DA407B685A60F1
:10082000204B5B6803F4E0637B617B691B0A7B619F
:100830001F4A7B6913441B78DBB2BB607B685A6834
:10084000BB68DA407B689A60164B5B6803F46053C0
:100850007B617B69DB0A7B61154A7B6913441B78EA
:10086000DBB2BB607B685A68BB68DA407B68DA60E1
:100870000C4B5B6803F440437B617B699B0B7B61A2
:100880000C4A7B6913441B78DBB2BB607B68DA6877
:10089000BB68B2FBF3F27B681A6100BF1C37BD4630
:1008A00080BC70470010024000127A0000093D0031
:1008B000140000202400002080B483B000AF7860D2
:1008C0000B46FB70FB78002B06D0094B5A69084990
:1008D0007B6813434B6106E0054B5A697B68DB4339
:1008E000034913404B6100BF0C37BD4680BC7047C5
:1008F0000010024080B483B000AF78600B46FB70FC
:10090000FB78002B06D0094B9A6908497B68134392
:100910008B6106E0054B9A697B68DB430349134012
:100920008B6100BF0C37BD4680BC70470010024091
:1009300080B483B000AF78600B46FB70FB78002B6F
:1009400006D0094BDA6908497B681343CB6106E09E
:10095000054BDA697B68DB4303491340CB6100BF79
:100960000C37BD4680BC70470010024080B483B095
:1009700000AF78600B46FB70FB78002B06D0094B6C
:10098000DA6808497B681343CB6006E0054BDA68F8
:100990007B68DB4303491340CB6000BF0C37BD4687
:1009A00080BC70470010024080B483B000AF786014
:1009B0000B46FB70FB78002B06D0094B1A690849DF
:1009C0007B6813430B6106E0054B1A697B68DB43C8
:1009D000034913400B6100BF0C37BD4680BC704714
:1009E0000010024080B483B000AF0346FB71044A9C
:1009F000FB79136000BF0C37BD4680BC704700BF59
:100A00004004424280B483B000AF0346FB71044A05
:100A1000FB79136000BF0C37BD4680BC704700BF38
:100A20004C00424280B483B000AF0346FB71044ADD
:100A3000FB79137000BF0C37BD4680BC704700BF08
:100A40000710024080B487B000AF0346FB7100235B
:100A5000FB6000237B610023FB74FB795B09DBB245
:100A6000FB60FB68012B03D1124B1B687B6109E023
:100A7000FB68022B03D10F4B1B6A7B6102E00D4B1D
:100A80005B6A7B61FB7903F01F03FB607A69FB689B
:100A900022FA03F303F00103002B02D00123FB74BD
:100AA00001E00023FB74FB7C18461C37BD4680BC6C
:100AB000704700BF0010024080B400AF044B5B6A77
:100AC000034A43F08073536200BFBD4680BC704749
:100AD0000010024080B485B000AF0346FB710023D4
:100AE000FB73084B9A68FB791340002B02D001235B
:100AF000FB7301E00023FB73FB7B18461437BD46F4
:100B000080BC70470010024080B483B000AF034641
:100B1000FB71044AFB79137000BF0C37BD4680BCE3
:100B2000704700BF0A10024080B483B000AF786005
:100B3000054A7B6843F0BF6343F40033D36000BFD2
:100B40000C37BD4680BC704700ED00E080B487B034
:100B500000AF786000237B6100233B610F23FB60C3
:100B60007B68DB78002B3AD0274BDB68DB431B0A22
:100B700003F007037B617B69C3F104033B61FA68FF
:100B80007B6922FA03F3FB607B685B781A463B695A
:100B900002FA03F37B617B689B781A46FB6813407B
:100BA0007A6913437B617B691B017B61174A7B6810
:100BB0001B787969C9B213440A4683F800237B681D
:100BC0001B7803F01F0311497A6812785209D2B2D8
:100BD0001046012202FA03F341F820300FE07B684F
:100BE0001B7803F01F0309497A6812785209D2B2C0
:100BF000104601229A4000F1200341F8232000BF53
:100C00001C37BD4680BC704700ED00E000E100E00D
:100C100080B483B000AF786039603B6823F06043F4
:100C200023F07F0304497A6813438B6000BF0C37BD
:100C3000BD4680BC704700BF00ED00E080B483B0CB
:100C400000AF03460A46FB711346BB71BB79002B0C
:100C500006D0094B1A69FB79074913430B6106E07B
:100C6000054B1A69FB79DB43034913400B6100BF55
:100C70000C37BD4680BC704700ED00E080B483B007
:100C800000AF78607B68042B06D1094B1B68084ACB
:100C900043F00403136005E0054B1B68044A23F08E
:100CA0000403136000BF0C37BD4680BC704700BF13
:100CB00010E000E080B582B000AF114B7B60114BBB
:100CC0003B6007E07A68131D7B603B68191D396043
:100CD00012681A603B680C4A9342F3D30D480E49E0
:100CE0004FF000028842B8BF40F8042BFADBFFF750
:100CF0000DFA00F02BFC00BF0837BD4680BD00BFD9
:100D000009160008000000202800002080B400AF71
:100D1000FEE70000280000203000002080B582B0EF
:100D200000AF78607B682F4A934208D101210420EC
:100D3000FFF71CFE00210420FFF718FE4EE07B6841
:100D4000294A934208D101210820FFF70FFE002114
:100D50000820FFF70BFE41E07B68244A934208D14C
:100D600001211020FFF702FE00211020FFF7FEFDF9
:100D700034E07B681E4A934208D101212020FFF70E
:100D8000F5FD00212020FFF7F1FD27E07B68194ADF
:100D9000934208D101214020FFF7E8FD00214020C7
:100DA000FFF7E4FD1AE07B68134A934208D1012162
:100DB0008020FFF7DBFD00218020FFF7D7FD0DE04D
:100DC0007B680E4A934209D101214FF48070FFF7EE
:100DD000CDFD00214FF48070FFF7C8FD00BF08373C
:100DE000BD4680BD00080140000C014000100140DC
:100DF0000014014000180140001C01400020014087
:100E000080B500AF01210120FFF7B0FD00210120D6
:100E1000FFF7ACFD00BF80BD80B489B000AF786043
:100E200039600023FB6100233B610023BB61002389
:100E3000FB6000237B610023BB603B68DB7803F031
:100E40000F03FB613B68DB7803F01003002B05D038
:100E50003B689B781A46FB691343FB613B681B8820
:100E6000DBB2002B44D07B681B687B610023BB6135
:100E700038E00122BB6902FA03F3FB603B681B8880
:100E80001A46FB6813403B613A69FB689A4226D1D7
:100E9000BB699B00FB600F22FB6802FA03F3BB6097
:100EA000BB68DB437A6913407B61FA69FB6802FA2D
:100EB00003F37A6913437B613B68DB78282B05D108
:100EC0000122BB699A407B685A6108E03B68DB7885
:100ED000482B04D10122BB699A407B681A61BB6927
:100EE0000133BB61BB69072BC3D97B687A691A6080
:100EF0003B681B88FF2B46D97B685B687B610023BE
:100F0000BB613AE0BB690833012202FA03F3FB60DC
:100F10003B681B881A46FB6813403B613A69FB68D3
:100F20009A4227D1BB699B00FB600F22FB6802FA43
:100F300003F3BB60BB68DB437A6913407B61FA69EA
:100F4000FB6802FA03F37A6913437B613B68DB7841
:100F5000282B05D1BB69083301229A407B685A616E
:100F60003B68DB78482B05D1BB69083301229A40E6
:100F70007B681A61BB690133BB61BB69072BC1D9AF
:100F80007B687A695A6000BF2437BD4680BC7047D1
:100F900080B483B000AF78607B684FF6FF721A8030
:100FA0007B6802229A707B680422DA7000BF0C37DB
:100FB000BD4680BC704780B485B000AF78600B46FA
:100FC0007B800023FB737B689A687B881340002B2F
:100FD00002D00123FB7301E00023FB73FB7B184667
:100FE0001437BD4680BC704780B483B000AF7860D2
:100FF0007B689B689BB218460C37BD4680BC704727
:1010000080B485B000AF78600B467B800023FB7313
:101010007B68DA687B881340002B02D00123FB73C6
:1010200001E00023FB73FB7B18461437BD4680BCF0
:10103000704780B483B000AF78607B68DB689BB298
:1010400018460C37BD4680BC704780B483B000AFF3
:1010500078600B467B807A887B681A6100BF0C370A
:10106000BD4680BC704780B483B000AF78600B464B
:101070007B807A887B685A6100BF0C37BD4680BC94
:10108000704780B483B000AF78600B467B80134616
:101090007B707B78002B03D07A887B681A6102E032
:1010A0007A887B685A6100BF0C37BD4680BC7047A8
:1010B00080B483B000AF78600B467B807A887B6811
:1010C000DA6000BF0C37BD4680BC704780B485B085
:1010D00000AF78600B467B804FF48033FB607B88E9
:1010E000FA681343FB607B68FA689A617A887B68C8
:1010F0009A617B68FA689A617B689B69FB607B6890
:101100009B69FB6000BF1437BD4680BC704780B44C
:1011100085B000AF03460A46FB711346BB7100233E
:10112000FB600C4B1B68FB60FA684FF68073134042
:10113000FB60FB791B01FA681343FB60BB79FA681B
:101140001343FB60034AFB68136000BF1437BD46BE
:1011500080BC70470000014080B483B000AF0346FC
:10116000FB71044AFB79136000BF0C37BD4680BC9D
:10117000704700BF1C00204280B487B000AF786089
:101180000B46FB7000233B610023FB6000237B6167
:101190000023BB607B68002B03DA2E4BDB697B618D
:1011A00002E02C4B5B687B617B681B0C03F00F0338
:1011B000BB607B689BB23B617B6803F44013B3F573
:1011C000401F0AD17B6923F070637B61214B5B6810
:1011D000204A23F07063536021E07B6803F480139E
:1011E000002B0ED00322BB6802FA03F3FB60FB68FE
:1011F000DB437A6913407B617B6943F070637B61F9
:101200000DE07B685B0D1B013A6902FA03F3DB43D7
:101210007A6913407B617B6943F070637B61FB7883
:10122000002B08D07B685B0D1B013A6902FA03F3BF
:101230007A6913437B617B68002B03DA054A7B697B
:10124000D36102E0034A7B69536000BF1C37BD468F
:1012500080BC70470000014080B485B000AF0346F9
:101260000A46FB711346BB710023FB60BB7903F098
:1012700003039B000F2202FA03F3FB60154ABB79BC
:101280009B08DBB2023352F82320FB68DB43114892
:10129000B9798908C9B21A408B1C40F823200D4A3D
:1012A000BB799B08DBB2023352F82320F979BB7972
:1012B00003F003039B0001FA03F30648B979890898
:1012C000C9B21A438B1C40F8232000BF1437BD4617
:1012D00080BC70470000014080B483B000AF7860EC
:1012E000034A7B68136000BF0C37BD4680BC704763
:1012F000DC00204280B582B000AFFFF72DF84FF43C
:101300008030FFF757F8FFF783F80346FB71FB794E
:10131000012B23D10020FFF729F90020FFF75EF908
:101320004FF48060FFF73EF94FF4E0114FF4803046
:10133000FFF7C4F80120FFF7DFF800BF3920FFF7FF
:1013400081FB0346002BF9D00220FFF7E5F800BF30
:10135000FFF7FEF80346082BFAD100E0FEE7083756
:10136000BD4680BD80B485B000AF78600023BB600F
:101370000CE00023FB6002E0FB680133FB60FB68CC
:10138000B3F5FA5FF8D3BB680133BB60BA687B681A
:101390009A42EED300BF1437BD4680BC704780B57B
:1013A00000AF01211420FFF7A5FA0E4B4FF40052B5
:1013B0001A800C4B1022DA700A4B03229A700949EA
:1013C0000948FFF729FD074B07221A80054B102219
:1013D000DA70044B03229A7002490448FFF71CFD9F
:1013E00000BF80BD2C00002000100140000801401B
:1013F00080B584B000AF0346FB710023FB731AE095
:1014000097F90730002B04DA02210E48FFF71DFE82
:1014100003E002210B48FFF726FE01210948FFF7F0
:1014200022FE01210748FFF710FEFB795B00FB71EC
:10143000FB7B0133FB73FB7B072BE1D900BF10372C
:10144000BD4680BD0008014080B582B000AF0346B4
:101450000A46FB711346BB7104210948FFF703FEDE
:10146000FB791846FFF7C4FFBB791846FFF7C0FFAA
:1014700004210348FFF7E9FD00BF0837BD4680BDE2
:101480000008014080B500AF01210C20FFF7DCFF10
:1014900004210A20FFF7D8FF07210B20FFF7D4FF14
:1014A00000210920FFF7D0FF00210F20FFF7CCFF1C
:1014B00000BF80BD80B582B000AF0823FB7107E09C
:1014C000FB7900211846FFF7BFFFFB79013BFB7159
:1014D000FB79002BF4D100BF0837BD4680BD80B535
:1014E00086B000AF78607B68FB82154B3B610023C0
:1014F000FB731EE0FB7BC3F10803D8B2FA8A3B6999
:10150000B2FBF3F30F4AD35C1946FFF79DFFFB8A4A
:101510003A69B3FBF2F2396901FB02F29B1AFB82D2
:101520003B69094AA2FB0323DB083B61FB7B0133D8
:10153000FB73FB7B072BDDD900BF1837BD4680BD91
:1015400080969800E8150008CDCCCCCC80B582B050
:1015500000AF00237B600023FB70FFF7CBFE002170
:101560004FF00060FFF754FBFFF719FFFFF78AFF0A
:10157000FFF7A0FF7868FFF7B2FF7B6801337B605D
:101580007B68164A934201D900237B60FFF77AFFFC
:10159000FB78134AD35C19460120FFF755FFFB780F
:1015A0000133FB70FB78202B01D90023FB704FF433
:1015B00000510C48FFF7FFFC0346002B0CBF012332
:1015C0000023DBB21A464FF400510648FFF759FDDD
:1015D0004FF4FA70FFF7C6FECFE700BFFFE0F50556
:1015E000E8150008001001407E306D79335B5F70B4
:1015F0007F7B7D1F0D3D6F47673E4F4E7737380E1F
:091600001D73050F3E1C3B178011
:1016090000A24A04000000000000000001020304D7
:10161900060708090000000001020304010203048F
:08162900060708090204060887
:0400000508000000EF
:00000001FF
